:100000000C942A000C9447000C9447000C94470071
:100010000C9447000C94580D0C9447000C94470026
:100020000C9447000C9447000C9447000C94470034
:100030000C9447000C9447000C9447000C94470024
:100040000C9447000C9447000C9447000C94470014
:100050000C94470011241FBECFE5D8E0DEBFCDBF12
:1000600016E0A0E6B0E0EEE3F3E502C005900D92E5
:10007000AA3FB107D9F717E0AAEFB6E001C01D9279
:10008000A636B107E1F70E9493280C949D290C94A1
:100090000000EF92FF920F931F937B018C0120E0F1
:1000A00030E040E05FE40E94490388238CF0C801FF
:1000B000B70120E030E040E05FE40E94C1010E940F
:1000C000A9039B01AC01205030404040504806C07D
:1000D000C801B7010E94A9039B01AC01B901CA0183
:1000E0001F910F91FF90EF900895A0E0B0E0EBE733
:1000F000F0E00C944D29DC012B01FA019C91923027
:1001000008F439C1EB018881823008F433C194309E
:1001100069F4843009F02FC111969C91119789815F
:10012000981709F428C1A3E2B6E025C1843009F488
:1001300021C18230A9F4923009F01DC19A01AD01AC
:1001400088E0EA010990AE01E90109929E0181501F
:10015000C1F7E201898111969C918923818308C1AD
:10016000923009F407C112962D903C901397EB0141
:100170008A819B811496AD90BD90CD90DC901797AD
:10018000EC80FD800E811F819101281B390BB90184
:1001900037FF04C066277727621B730B6032710537
:1001A0000CF061C0121613066CF537014801062EDB
:1001B00004C096948794779467940A94D2F721E0C8
:1001C00030E040E050E004C0220F331F441F551FB1
:1001D0006A95D2F721503040404050402E213F21B7
:1001E00040235123211531054105510521F021E01E
:1001F00030E040E050E079018A01E628F72808293C
:1002000019293CC0232BD1F1260E371E350146019A
:10021000062E04C096948794779467940A94D2F734
:1002200021E030E040E050E004C0220F331F441FC3
:10023000551F6A95D2F721503040404050402A2146
:100240003B214C215D21211531054105510521F04E
:1002500021E030E040E050E059016A01A628B728CB
:10026000C828D9280BC0821593052CF01C01AA249C
:10027000BB24650103C0EE24FF24870111969C91E5
:10028000D20111968C91981709F445C0992339F041
:10029000A80197012A193B094C095D0906C0A6016E
:1002A00095012E193F09400B510B57FD08C01182D3
:1002B0003382228224833583468357831DC081E0A5
:1002C00081833382228288279927DC01821B930B4A
:1002D000A40BB50B84839583A683B7830DC0220F2F
:1002E000331F441F551F24833583468357838281E0
:1002F000938101979383828324813581468157813D
:10030000DA01C9010197A109B1098F5F9F4FAF4F72
:10031000BF4328F30BC0918333822282EA0CFB1C7B
:100320000C1D1D1DE482F5820683178383E0808304
:10033000248135814681578157FF1AC0C901AA27F8
:1003400097FDA095BA2F81709070A070B0705695EF
:10035000479537952795822B932BA42BB52B848318
:100360009583A683B7838281938101969383828349
:10037000DF0101C0D201CD01CDB7DEB7E2E10C94BF
:100380006929A0E2B0E0E7ECF1E00C945929698317
:100390007A838B839C832D833E834F835887E9E048
:1003A000EE2EF12CEC0EFD1ECE010196B7010E943F
:1003B000D2048E010F5E1F4FCE010596B8010E9438
:1003C000D2048A8991E089278A8BC701B801AE01DE
:1003D000475E5F4F0E9475000E94FD03A096E6E015
:1003E0000C947529A0E2B0E0E8EFF1E00C945929F3
:1003F00069837A838B839C832D833E834F835887C5
:10040000F9E0EF2EF12CEC0EFD1ECE010196B701A6
:100410000E94D2048E010F5E1F4FCE010596B801D7
:100420000E94D204C701B801AE01475E5F4F0E942F
:1004300075000E94FD03A096E6E00C947529A0E2E9
:10044000B0E0E5E2F2E00C944D2969837A838B8376
:100450009C832D833E834F835887CE010196BE0136
:10046000675F7F4F0E94D204CE010596BE016F5E8A
:100470007F4F0E94D2049985923088F0898982301A
:10048000C8F0943019F4823051F404C0843029F457
:10049000923081F483E296E0C6C0923049F420E0C5
:1004A0009A858A89981321E02A87CE010996BBC0D4
:1004B000823049F420E09A858A89981321E02A8BBA
:1004C000CE014196B0C02D843E844F8458886D88FB
:1004D0007E888F88988CEE24FF248701AA24BB2471
:1004E000650140E050E060E070E0E0E0F0E0C10174
:1004F00081709070892BE9F0E60CF71C081D191D1E
:100500009A01AB012A0D3B1D4C1D5D1D80E090E062
:10051000A0E0B0E0E614F7040805190520F481E036
:1005200090E0A0E0B0E0BA01A901480F591F6A1F8E
:100530007B1FAA0CBB1CCC1CDD1C97FE08C081E0F5
:1005400090E0A0E0B0E0A82AB92ACA2ADB2A3196B6
:10055000E032F10549F0660C771C881C991C569412
:10056000479437942794C3CFFA85EA892B893C892D
:100570008B859C85280F391F2E5F3F4F17C0CA01FE
:1005800081709070892B61F016950795F794E79428
:1005900080E090E0A0E0B0E8E82AF92A0A2B1B2BC3
:1005A00076956795579547952F5F3F4F77FDE7CF36
:1005B0000CC0440F551F661F771F17FD4160EE0CDE
:1005C000FF1C001F111F21503040403090E05907A0
:1005D00090E0690790E4790760F32B8F3C8FDB0193
:1005E000CA018F779070A070B07080349105A1051A
:1005F000B10561F447FD0AC0E114F10401051105DC
:1006000029F0405C5F4F6F4F7F4F40781A8EFE1786
:1006100011F081E08A8F4D8F5E8F6F8F78A383E01A
:10062000898FCE0149960E94FD03A096E2E10C94C9
:100630006929A8E1B0E0EFE1F3E00C94592969835E
:100640007A838B839C832D833E834F83588789E0F5
:10065000E82EF12CEC0EFD1ECE010196B7010E9492
:10066000D2048E010F5E1F4FCE010596B8010E9485
:10067000D2048985823040F08989823028F0C70110
:10068000B8010E944A0501C08FEF6896E6E00C941D
:100690007529A8E1B0E0EFE4F3E00C9459296983EF
:1006A0007A838B839C832D833E834F83588789E095
:1006B000E82EF12CEC0EFD1ECE010196B7010E9432
:1006C000D2048E010F5E1F4FCE010596B8010E9425
:1006D000D2048985823040F08989823028F0C701B0
:1006E000B8010E944A0501C08FEF6896E6E00C94BD
:1006F0007529A8E1B0E0EFE7F3E00C94592969838C
:100700007A838B839C832D833E834F83588789E034
:10071000E82EF12CEC0EFD1ECE010196B7010E94D1
:10072000D2048E010F5E1F4FCE010596B8010E94C4
:10073000D2048985823040F08989823028F0C7014F
:10074000B8010E944A0501C081E06896E6E00C9479
:100750007529ACE0B0E0EFEAF3E00C945D29698321
:100760007A838B839C83CE010196BE016B5F7F4FA2
:100770000E94D2048D81823061F1823050F1843048
:1007800021F48E81882351F12EC02F81388537FDC9
:1007900020C06E812F3131051CF06623F9F023C093
:1007A0008EE190E0821B930B29853A854B855C8511
:1007B00004C056954795379527958A95D2F76623B5
:1007C000B1F050954095309521953F4F4F4F5F4F79
:1007D0000EC020E030E040E050E009C02FEF3FEFD6
:1007E0004FEF5FE704C020E030E040E050E8B9019F
:1007F000CA012C96E2E00C947929DF92EF92FF92E5
:100800000F931F93FC01E480F58006811781D1804E
:100810008081823048F480E090E0A0E1B0E0E82AF6
:10082000F92A0A2B1B2BA5C0843009F49FC0823003
:1008300021F4EE24FF24870105C0E114F104010531
:10084000110519F4E0E0F0E096C0628173819FEF3A
:10085000623879070CF05BC022E83FEF261B370BAC
:100860002A3131052CF020E030E040E050E02AC091
:10087000B801A701022E04C0769567955795479554
:100880000A94D2F781E090E0A0E0B0E004C0880FC5
:10089000991FAA1FBB1F2A95D2F70197A109B10979
:1008A0008E219F21A023B1230097A105B10521F03E
:1008B00081E090E0A0E0B0E09A01AB01282B392B59
:1008C0004A2B5B2BDA01C9018F779070A070B07052
:1008D00080349105A105B10539F427FF09C0205CDA
:1008E0003F4F4F4F5F4F04C0215C3F4F4F4F5F4F13
:1008F000E0E0F0E02030A0E03A07A0E04A07A0E402
:100900005A0710F0E1E0F0E079018A0127C0603871
:10091000710564F5FB01E158FF4FD801C7018F77DE
:100920009070A070B07080349105A105B10539F4C4
:10093000E7FE0DC080E490E0A0E0B0E004C08FE3EB
:1009400090E0A0E0B0E0E80EF91E0A1F1B1F17FFA1
:1009500005C016950795F794E794319687E01695AC
:100960000795F794E7948A95D1F705C0EE24FF2404
:100970008701EFEFF0E06E2F679566276795902F60
:100980009F77D794DD24D7948E2F8695492F462BB9
:10099000582F5D29B701CA011F910F91FF90EF9069
:1009A000DF900895FC01DB01408151812281622F9B
:1009B0006F7770E0221F2227221F9381892F880FD3
:1009C000822B282F30E0991F9927991F11969C930D
:1009D000119721153105A9F54115510561057105DD
:1009E00011F482E037C082E89FEF13969C938E93B8
:1009F00012979A01AB0167E0220F331F441F551F66
:100A00006A95D1F783E08C930DC0220F331F441FEA
:100A1000551F12968D919C911397019713969C9355
:100A20008E931297203080E0380780E0480780E4FA
:100A3000580758F314962D933D934D935C93179755
:100A400008952F3F310579F4411551056105710570
:100A500019F484E08C93089564FF03C081E08C93C3
:100A600012C01C9210C02F57304013963C932E9307
:100A7000129783E08C9387E0440F551F661F771F02
:100A80008A95D1F7706414964D935D936D937C9322
:100A9000179708951F93DC01FB019C91923008F495
:100AA00047C08081823008F443C0943051F41196DD
:100AB0001C91843099F58181682F70E0611B710968
:100AC0003FC0843021F0923031F48230B9F181811D
:100AD000882389F12DC011961C9111978230F1F075
:100AE00081811817D9F412962D913C911397828128
:100AF00093818217930794F028173907BCF0149656
:100B00008D919D910D90BC91A02D248135814681C0
:100B10005781281739074A075B0718F4112341F05A
:100B20000AC082179307A407B50740F4112319F0F0
:100B300061E070E005C06FEF7FEF02C060E070E041
:100B4000CB011F910895DF93CF9300D0CDB7DEB7CF
:100B50009A838983E981FA8180818823B1F4A0E4B2
:100B6000B0E0E0E4F0E080818D7F8C93A0E4B0E021
:100B7000E0E4F0E080818B7F8C93AAE2B0E0EAE2CF
:100B8000F0E080818B7F8C936BC0E981FA8180815A
:100B90008130B1F4A0E4B0E0E0E4F0E08081826074
:100BA0008C93A0E4B0E0E0E4F0E080818B7F8C9354
:100BB000AAE2B0E0EAE2F0E080818B7F8C9350C043
:100BC000E981FA8180818230B1F4A0E4B0E0E0E410
:100BD000F0E080818D7F8C93A0E4B0E0E0E4F0E071
:100BE000808184608C93AAE2B0E0EAE2F0E0808148
:100BF0008B7F8C9335C0E981FA8180818330B1F499
:100C0000A0E4B0E0E0E4F0E0808182608C93A0E4B6
:100C1000B0E0E0E4F0E0808184608C93AAE2B0E090
:100C2000EAE2F0E080818B7F8C931AC0E981FA813F
:100C300080818430A9F4A0E4B0E0E0E4F0E08081B9
:100C400082608C93A0E4B0E0E0E4F0E08081846016
:100C50008C93AAE2B0E0EAE2F0E0808184608C93B9
:100C6000E981FA818181882379F4A0E4B0E0E0E4AD
:100C7000F0E080818F7E8C93A0E4B0E0E0E4F0E0CF
:100C800080818F7D8C9327C0E981FA8181818130B9
:100C900079F4A0E4B0E0E0E4F0E080818F7E8C9312
:100CA000A0E4B0E0E0E4F0E0808180628C9313C0C7
:100CB000E981FA818181823071F4A0E4B0E0E0E45E
:100CC000F0E0808180618C93A0E4B0E0E0E4F0E0AB
:100CD000808180628C93E981FA818281882341F44A
:100CE000A0E4B0E0E0E4F0E08081877F8C930CC06A
:100CF000E981FA818281813039F4A0E4B0E0E0E456
:100D0000F0E0808188608C93E981FA818381882377
:100D1000B1F4AAE2B0E0EAE2F0E080818F778C9350
:100D2000AAE2B0E0EAE2F0E080818F7D8C93AAE253
:100D3000B0E0EAE2F0E080818F7B8C931AC0E98119
:100D4000FA8183818130A9F4AAE2B0E0EAE2F0E01E
:100D5000808180688C93AAE2B0E0EAE2F0E08081D2
:100D600080628C93AAE2B0E0EAE2F0E080818064E5
:100D70008C93E981FA818781813041F4A0E4B0E06D
:100D8000E0E4F0E080818F7B8C930CC0E981FA81F4
:100D90008781882339F4A0E4B0E0E0E4F0E08081CA
:100DA00080648C93E981FA8180858130C1F4ABE263
:100DB000B0E0EBE2F0E0808182608C93A9E2B0E0E9
:100DC000E981FA81848195818C93A0E4B0E0E98186
:100DD000FA8184819581892F99278C931DC0E9819F
:100DE000FA8180858823C1F4ABE2B0E0EBE2F0E069
:100DF00080818D7F8C93A9E2B0E0E981FA818681C0
:100E00008C93A0E4B0E0E981FA818681882F90E09C
:100E1000892F990F990B8C930F900F90CF91DF91A1
:100E20000895DF93CF9300D0CDB7DEB79A8389833F
:100E3000AAE2B0E0EAE2F0E0808180618C93AAE26D
:100E4000B0E0EAE2F0E0808188608C930F900F9030
:100E5000CF91DF910895DF93CF9300D0CDB7DEB768
:100E60009A838983AAE2B0E0EAE2F0E080818F7E93
:100E70008C93AAE2B0E0EAE2F0E08081877F8C9375
:100E80000F900F90CF91DF910895DF93CF930F9242
:100E9000CDB7DEB78983EBE2F0E08081829586955D
:100EA0008770882F90E0817090700097A1F3ECE23A
:100EB000F0E0898180830F90CF91DF910895DF93D7
:100EC000CF930F92CDB7DEB7EBE2F0E08081881FC1
:100ED0008827881F8130C1F7ECE2F0E080818983A8
:100EE000ABE2B0E0EBE2F0E080818F778C93898118
:100EF0000F90CF91DF910895DF93CF9300D0CDB7BE
:100F0000DEB79A8389830BC0E981FA8120818981C8
:100F10009A8101969A838983822F0E944507E981ED
:100F2000FA818081882381F70F900F90CF91DF9114
:100F30000895DF93CF930F92CDB7DEB7ECE2F0E0E8
:100F400080818983ABE2B0E0EBE2F0E080818F77D3
:100F50008C930F90CF91DF910895DF93CF93CDB70E
:100F6000DEB782E060E040E020E00E94831482E08F
:100F700061E040E020E00E948314E0E2F0E080E2E3
:100F80008083E1E2F0E01082E2E2F0E080E580833D
:100F9000E6E5F0E084E08083CF91DF910895DF9370
:100FA000CF93CDB7DEB7E6E5F0E084EA8083E6E5EF
:100FB000F0E080818823DCF7CF91DF910895DF9303
:100FC000CF93CDB7DEB7E6E5F0E084E98083CF913B
:100FD000DF910895DF93CF930F92CDB7DEB789836A
:100FE000E3E2F0E089818083E6E5F0E084EC808351
:100FF000E6E5F0E080818823DCF70F90CF91DF9168
:101000000895DF93CF930F92CDB7DEB7E6E5F0E01A
:1010100080818823DCF7A6E5B0E0E6E5F0E080819A
:1010200080648C93A6E5B0E0E6E5F0E08081846022
:101030008C93E6E5F0E080818823DCF7E3E2F0E0E2
:101040008081898389810F90CF91DF910895DF930B
:10105000CF930F92CDB7DEB7E6E5F0E0808188232D
:10106000DCF7A6E5B0E0E6E5F0E080818F7B8C93CD
:10107000A6E5B0E0E6E5F0E0808184608C93E6E5EB
:10108000F0E080818823DCF7E3E2F0E0808189836F
:1010900089810F90CF91DF910895DF93CF930F92C5
:1010A000CDB7DEB7E1E2F0E08081887F8983898176
:1010B0000F90CF91DF910895DF93CF9300D000D0B0
:1010C000CDB7DEB79A83898389819A81009709F425
:1010D00088C2E981FA818081282F30E03C832B830C
:1010E0008B819C818330910509F427C12B813C8140
:1010F000243031058CF48B819C818130910509F479
:1011000070C02B813C81223031050CF0BDC08B8139
:101110009C810097A1F065C22B813C81253031056F
:1011200009F4BEC18B819C81853091050CF45FC1AF
:101130002B813C812630310509F404C252C2A3E55B
:10114000B0E0E3E5F0E08081877B8C93E981FA8170
:101150008281813049F4A9E5B0E0E9E5F0E08081E1
:101160008C7F81608C933DC2E981FA8182818823E2
:1011700009F037C2E981FA818381882341F4A3E52C
:10118000B0E0E3E5F0E080818F7C8C932AC2E981B6
:10119000FA818381813049F4A3E5B0E0E3E5F0E032
:1011A00080818F7C80618C931CC2E981FA8183816C
:1011B000823049F4A3E5B0E0E3E5F0E080818F7C84
:1011C00080628C930EC2E981FA818381833009F0B9
:1011D00008C2A3E5B0E0E3E5F0E0808180638C9392
:1011E00000C2A3E5B0E0E3E5F0E08081877B8860A2
:1011F0008C93E981FA818281813049F4A9E5B0E0DC
:10120000E9E5F0E080818C7F82608C93EAC1E9811E
:10121000FA818281882309F0E4C1E981FA8183811E
:10122000882341F4A3E5B0E0E3E5F0E080818F7C22
:101230008C93D7C1E981FA818381813049F4A3E598
:10124000B0E0E3E5F0E080818F7C80618C93C9C1E0
:10125000E981FA818381823049F4A3E5B0E0E3E5D6
:10126000F0E080818F7C80628C93BBC1E981FA8140
:101270008381833009F0B5C1A3E5B0E0E3E5F0E098
:10128000808180638C93ADC1AFE4B0E0EFE4F0E027
:1012900080818C7F8C93AEE4B0E0EEE4F0E080815E
:1012A000877E8C93E981FA818281813049F4A9E5B6
:1012B000B0E0E9E5F0E08081837C84608C9391C1AB
:1012C000E981FA818281882309F08BC1E981FA8161
:1012D0008381882341F4AFE4B0E0EFE4F0E0808163
:1012E0008F7C8C937EC1E981FA818381813049F4BE
:1012F000AFE4B0E0EFE4F0E080818F7C80618C931C
:1013000070C1E981FA818381823049F4AFE4B0E0B1
:10131000EFE4F0E080818F7C80628C9362C1E98190
:10132000FA818381833009F05CC1AFE4B0E0EFE47F
:10133000F0E0808180638C9354C1AFE4B0E0EFE4CF
:10134000F0E080818C7F8C93AEE4B0E0EEE4F0E0DE
:101350008081877E88608C93E981FA8182818130E7
:1013600049F4A9E5B0E0E9E5F0E08081837C88619B
:101370008C9337C1E981FA818281882309F031C1D8
:10138000E981FA818381882341F4AFE4B0E0EFE49E
:10139000F0E080818F7C8C9324C1E981FA81838184
:1013A000813049F4AFE4B0E0EFE4F0E080818F7C7D
:1013B00080618C9316C1E981FA818381823049F47E
:1013C000AFE4B0E0EFE4F0E080818F7C80628C934A
:1013D00008C1E981FA818381833009F002C1AFE459
:1013E000B0E0EFE4F0E0808180638C93FAC0AFE47A
:1013F000B0E0EFE4F0E080818C7F8C93AEE4B0E06D
:10140000EEE4F0E0808188618C93E981FA81828149
:10141000813049F4A9E5B0E0E9E5F0E08081837C22
:1014200088618C93DEC0E981FA818281882309F08A
:10143000D8C0E981FA818381882341F4AFE4B0E028
:10144000EFE4F0E080818F7C8C93CBC0E981FA815E
:101450008381813049F4AFE4B0E0EFE4F0E08081D3
:101460008F7C80618C93BDC0E981FA818381823059
:1014700049F4AFE4B0E0EFE4F0E080818F7C80627B
:101480008C93AFC0E981FA818381833009F0A9C0D0
:10149000AFE4B0E0EFE4F0E0808180638C93A1C022
:1014A000A5E4B0E0E5E4F0E08081877B8C93E981FE
:1014B000FA818281813049F4A9E5B0E0E9E5F0E004
:1014C00080818F7380648C938CC0E981FA818281E2
:1014D000882309F086C0E981FA818381882341F459
:1014E000A5E4B0E0E5E4F0E080818F7C8C9379C0E6
:1014F000E981FA818381813049F4A5E4B0E0E5E433
:10150000F0E080818F7C80618C936BC0E981FA81EF
:101510008381823049F4A5E4B0E0E5E4F0E0808125
:101520008F7C80628C935DC0E981FA8183818330F6
:1015300009F057C0A5E4B0E0E5E4F0E08081806305
:101540008C934FC0A5E4B0E0E5E4F0E08081877BB8
:101550008C93E981FA818281813049F4A9E5B0E078
:10156000E9E5F0E080818F7380688C933AC0E9816F
:10157000FA8182818823A9F5E981FA818381882310
:1015800041F4A5E4B0E0E5E4F0E080818F7C8C9349
:1015900028C0E981FA818381813049F4A5E4B0E073
:1015A000E5E4F0E080818F7C80618C931AC0E98152
:1015B000FA818381823049F4A5E4B0E0E5E4F0E00B
:1015C00080818F7C80628C930CC0E981FA81838159
:1015D000833039F4A5E4B0E0E5E4F0E08081806395
:1015E0008C930F900F900F900F90CF91DF910895F3
:1015F000DF93CF93CDB7DEB72A970FB6F894DEBF4F
:101600000FBECDBF9A83898389819A81009709F49F
:1016100098C1E981FA818081282F30E03A872987B3
:1016200089859A858530910564F429853A8522302B
:1016300031050CF08BC089859A8599230CF481C102
:1016400007C029853A85273031050CF07AC1FCC0E6
:10165000E981FA818181282F30E038872F838F81BB
:1016600098858330910509F445C02F813885243051
:1016700031057CF48F8198858130910549F12F8166
:101680003885223031056CF58F8198850097C1F03F
:1016900058C12F8138852530310509F43DC08F812F
:1016A0009885853091057CF12F813885263031056C
:1016B000E1F18F8198858730910509F43FC041C1E0
:1016C000A3E5B0E0E3E5F0E08081887F8C9339C149
:1016D000A3E5B0E0E3E5F0E08081887F81608C9352
:1016E00030C1A3E5B0E0E3E5F0E08081887F82606F
:1016F0008C9327C1A3E5B0E0E3E5F0E08081887F2B
:1017000083608C931EC1A3E5B0E0E3E5F0E0808147
:10171000887F84608C9315C1A3E5B0E0E3E5F0E039
:101720008081887F85608C930CC1A3E5B0E0E3E500
:10173000F0E08081887F86608C9303C1A3E5B0E0F0
:10174000E3E5F0E0808187608C93FBC0E981FA815A
:101750008181282F30E03E832D838D819E818330CF
:10176000910509F445C02D813E81243031057CF47A
:101770008D819E818130910549F12D813E812230FC
:1017800031056CF58D819E810097C1F0DAC02D8105
:101790003E812530310509F43DC08D819E81853023
:1017A00091057CF12D813E8126303105E1F18D815D
:1017B0009E818730910509F43FC0C3C0AEE4B0E01C
:1017C000EEE4F0E08081887F8C93BBC0AEE4B0E0B3
:1017D000EEE4F0E08081887F81608C93B2C0AEE45B
:1017E000B0E0EEE4F0E08081887F82608C93A9C055
:1017F000AEE4B0E0EEE4F0E08081887F83608C931B
:10180000A0C0AEE4B0E0EEE4F0E08081887F8460C8
:101810008C9397C0AEE4B0E0EEE4F0E08081887F86
:1018200085608C938EC0AEE4B0E0EEE4F0E08081A1
:10183000887F86608C9385C0AEE4B0E0EEE4F0E093
:10184000808187608C937DC0E981FA818181282F16
:1018500030E03C832B838B819C818330910509F49C
:101860004EC02B813C81243031057CF48B819C81DE
:101870008130910549F12B813C81223031056CF595
:101880008B819C810097C1F05CC02B813C8125300D
:10189000310509F44FC08B819C81853091050CF492
:1018A00040C02B813C812830310501F18B819C8126
:1018B0008930910569F145C0A5E4B0E0E5E4F0E0C8
:1018C0008081887F8C933DC0A5E4B0E0E5E4F0E042
:1018D0008081887F81608C9334C0A5E4B0E0E5E42A
:1018E000F0E08081887F82608C932BC0A5E4B0E01B
:1018F000E5E4F0E08081887F83608C9322C0A5E4DA
:10190000B0E0E5E4F0E08081887F84608C9319C0CA
:10191000A5E4B0E0E5E4F0E08081887F85608C9309
:1019200010C0A5E4B0E0E5E4F0E08081887F866047
:101930008C9307C0A5E4B0E0E5E4F0E08081876027
:101940008C932A960FB6F894DEBF0FBECDBFCF9111
:10195000DF910895DF93CF9300D000D0CDB7DEB7ED
:101960009A83898389819A81009799F1E981FA8123
:101970008081282F30E03C832B838B819C818530B4
:10198000910554F42B813C81223031059CF48B81EC
:101990009C819923F4F006C02B813C8127303105CE
:1019A000C4F410C0A3E5B0E0E3E5F0E08081887FF7
:1019B0008C930FC0AEE4B0E0EEE4F0E08081887F6D
:1019C0008C9307C0A5E4B0E0E5E4F0E08081887F77
:1019D0008C930F900F900F900F90CF91DF910895FF
:1019E000DF93CF9300D000D0CDB7DEB79A83898341
:1019F0007C836B8389819A81009779F0E981FA81F0
:101A00008081882F90E002978330910530F4E6E4DE
:101A1000F0E08B819C81918380830F900F900F90D9
:101A20000F90CF91DF910895DF93CF9300D000D036
:101A300000D0CDB7DEB79A8389837C836B8389819D
:101A40009A81009761F1E981FA818081282F30E045
:101A50003E832D838D819E818530910554F42D81A7
:101A60003E812230310584F48D819E819923BCF022
:101A700006C02D813E81273031058CF40CC0ECE589
:101A8000F0E08B8180830BC0EAE4F0E08B819C81E5
:101A90009183808304C0E3E4F0E08B818083269609
:101AA0000FB6F894DEBF0FBECDBFCF91DF91089582
:101AB0001F920F920FB60F9211242F933F934F93C3
:101AC0005F936F937F938F939F93AF93BF93EF93A6
:101AD000FF93DF93CF9300D0CDB7DEB78CE78A8337
:101AE0008FE189838091FB068F5F8093FB06909145
:101AF000FB0689819817A1F480912B06815D0E94D5
:101B0000450780E690E00E947C071092FB06E4E423
:101B1000F0E08A81808380912B06815080932B0690
:101B200080912B06882371F486E790E00E947C0761
:101B30008AE080932B0685EF96E00E94AA0C81E054
:101B40008093FA060F900F90CF91DF91FF91EF9164
:101B5000BF91AF919F918F917F916F915F914F91C5
:101B60003F912F910F900FBE0F901F901895DF930C
:101B7000CF9300D000D0CDB7DEB79A838983898117
:101B80009A81009709F42DC4E981FA818081282F78
:101B900030E03C832B838B819C818730910509F455
:101BA00004C22B813C812830310554F58B819C8106
:101BB0008330910509F400C12B813C81243031052B
:101BC00094F48B819C818130910509F481C02B8133
:101BD0003C81223031050CF0B1C08B819C81009793
:101BE00009F43FC0FEC32B813C812530310509F447
:101BF0005EC18B819C81863091050CF097C11AC122
:101C00002B813C812B30310509F4C9C28B819C8129
:101C10008C3091056CF42B813C812930310509F41D
:101C200040C28B819C818A3091050CF079C2FBC146
:101C30002B813C812D30310509F42DC38B819C8192
:101C40008D3091050CF4E9C22B813C812E30310599
:101C500009F45EC38B819C818F30910509F48EC39A
:101C6000C0C3A3E5B0E0E3E5F0E08081877B80645A
:101C70008C93E981FA818281813041F4A9E5B0E059
:101C8000E9E5F0E0808183608C93ABC3E981FA8160
:101C90008281882309F0A5C3E981FA81838181309B
:101CA00049F4A3E5B0E0E3E5F0E080818F7C806259
:101CB0008C9397C3E981FA818381882309F091C3CA
:101CC000A3E5B0E0E3E5F0E0808180638C9389C315
:101CD000A3E5B0E0E3E5F0E0808188648C93E981DE
:101CE000FA818281813041F4A9E5B0E0E9E5F0E0D4
:101CF000808183608C9375C3E981FA818281882316
:101D000009F06FC3E981FA818381813049F4A3E549
:101D1000B0E0E3E5F0E080818F7C80628C9361C36A
:101D2000E981FA818381882309F05BC3A3E5B0E0F0
:101D3000E3E5F0E0808180638C9353C3AFE4B0E0CF
:101D4000EFE4F0E080818C7F81608C93AEE4B0E0C2
:101D5000EEE4F0E08081877E8C93E981FA818281D4
:101D6000813041F4A9E5B0E0E9E5F0E080818C63E1
:101D70008C9337C3E981FA818281882309F031C3CA
:101D8000E981FA818381813049F4AFE4B0E0EFE486
:101D9000F0E080818F7C80628C9323C3E981FA819B
:101DA0008381882309F01DC3AFE4B0E0EFE4F0E0E5
:101DB000808180638C9315C3AFE4B0E0EFE4F0E082
:101DC00080818C7F82608C93AEE4B0E0EEE4F0E042
:101DD0008081877E8C93E981FA818281813041F410
:101DE000A9E5B0E0E9E5F0E080818C638C93F9C26D
:101DF000E981FA818281882309F0F3C2E981FA81BD
:101E00008381813049F4AFE4B0E0EFE4F0E0808119
:101E10008F7C80628C93E5C2E981FA81838188237B
:101E200009F0DFC2AFE4B0E0EFE4F0E0808180636E
:101E30008C93D7C2AFE4B0E0EFE4F0E08081836040
:101E40008C93AEE4B0E0EEE4F0E08081877E8C938A
:101E5000E981FA818281813041F4A9E5B0E0E9E5C8
:101E6000F0E080818C638C93BCC2E981FA8182812D
:101E7000882309F0B6C2E981FA818381813049F46F
:101E8000AFE4B0E0EFE4F0E080818F7C80628C937F
:101E9000A8C2E981FA818381882309F0A2C2AFE454
:101EA000B0E0EFE4F0E0808180638C939AC2AFE40D
:101EB000B0E0EFE4F0E080818C7F81608C93AEE451
:101EC000B0E0EEE4F0E08081877E88608C93E98169
:101ED000FA818281813041F4A9E5B0E0E9E5F0E0E2
:101EE00080818C638C937DC2E981FA818281882311
:101EF00009F077C2E981FA818381813049F4AFE446
:101F0000B0E0EFE4F0E080818F7C80628C9369C266
:101F1000E981FA818381882309F063C2AFE4B0E0EC
:101F2000EFE4F0E0808180638C935BC2AFE4B0E0CB
:101F3000EFE4F0E080818C7F82608C93AEE4B0E0CF
:101F4000EEE4F0E08081877E88608C93E981FA81FD
:101F50008281813041F4A9E5B0E0E9E5F0E08081DB
:101F60008C638C933EC2E981FA818281882309F0D7
:101F700038C2E981FA818381813049F4AFE4B0E06D
:101F8000EFE4F0E080818F7C80628C932AC2E9814B
:101F9000FA818381882309F024C2AFE4B0E0EFE442
:101FA000F0E0808180638C931CC2AFE4B0E0EFE48A
:101FB000F0E0808183608C93AEE4B0E0EEE4F0E08A
:101FC0008081877E88608C93E981FA81828181306B
:101FD00041F4A9E5B0E0E9E5F0E080818C638C9301
:101FE00000C2E981FA818281882309F0FAC1E9817E
:101FF000FA818381813049F4AFE4B0E0EFE4F0E0AE
:1020000080818F7C80628C93ECC1E981FA8183812D
:10201000882309F0E6C1AFE4B0E0EFE4F0E08081AE
:1020200080638C93DEC1AFE4B0E0EFE4F0E0808148
:102030008C7F8C93AEE4B0E0EEE4F0E08081877EAC
:1020400080618C93E981FA818281813041F4A9E534
:10205000B0E0E9E5F0E080818C638C93C2C1E98156
:10206000FA818281882309F0BCC1E981FA818381E8
:10207000813049F4AFE4B0E0EFE4F0E080818F7CA0
:1020800080628C93AEC1E981FA818381882309F053
:10209000A8C1AFE4B0E0EFE4F0E0808180638C930E
:1020A000A0C1AFE4B0E0EFE4F0E080818C7F81601C
:1020B0008C93AEE4B0E0EEE4F0E08081877E806156
:1020C0008C93E981FA818281813041F4A9E5B0E005
:1020D000E9E5F0E080818C638C9383C1E981FA812A
:1020E0008281882309F07DC1E981FA818381813071
:1020F00049F4AFE4B0E0EFE4F0E080818F7C8062EF
:102100008C936FC1E981FA818381882309F069C1C9
:10211000AFE4B0E0EFE4F0E0808180638C9361C1D4
:10212000AFE4B0E0EFE4F0E080818C7F82608C93DC
:10213000AEE4B0E0EEE4F0E08081877E80618C93D5
:10214000E981FA818281813041F4A9E5B0E0E9E5D5
:10215000F0E080818C638C9344C1E981FA818281B3
:10216000882309F03EC1E981FA818381813049F4F5
:10217000AFE4B0E0EFE4F0E080818F7C80628C938C
:1021800030C1E981FA818381882309F02AC1AFE453
:10219000B0E0EFE4F0E0808180638C9322C1AFE493
:1021A000B0E0EFE4F0E0808183608C93AEE4B0E0D7
:1021B000EEE4F0E08081877E80618C93E981FA8192
:1021C0008281813041F4A9E5B0E0E9E5F0E0808169
:1021D0008C638C9306C1E981FA818281882309F09E
:1021E00000C1E981FA818381813049F4AFE4B0E034
:1021F000EFE4F0E080818F7C80628C93F2C0E98113
:10220000FA818381882309F0ECC0AFE4B0E0EFE409
:10221000F0E0808180638C93E4C0AFE4B0E0EFE451
:10222000F0E080818C7F82608C93AEE4B0E0EEE4DD
:10223000F0E0808188618C93E981FA81828181302C
:1022400041F4A9E5B0E0E9E5F0E080818C638C938E
:10225000C8C0E981FA818281882309F0C2C0E9817E
:10226000FA818381813049F4AFE4B0E0EFE4F0E03B
:1022700080818F7C80628C93B4C0E981FA818381F4
:10228000882309F0AEC0AFE4B0E0EFE4F0E0808175
:1022900080638C93A6C0AFE4B0E0EFE4F0E080810F
:1022A00083608C93AEE4B0E0EEE4F0E0808188617E
:1022B0008C93E981FA818281813041F4A9E5B0E013
:1022C000E9E5F0E080818C638C938BC0E981FA8131
:1022D0008281882309F085C0E981FA818381813078
:1022E00049F4AFE4B0E0EFE4F0E080818F7C8062FD
:1022F0008C9377C0E981FA818381882309F071C0CA
:10230000AFE4B0E0EFE4F0E0808180638C9369C0DB
:10231000A5E4B0E0E5E4F0E08081877B80648C9305
:10232000E981FA818281813041F4A9E5B0E0E9E5F3
:10233000F0E08081806C8C9354C0E981FA818281C5
:10234000882309F04EC0E981FA818381813049F404
:10235000A5E4B0E0EFE4F0E080818F7C80628C93B4
:1023600040C0E981FA8183818823D9F5A5E4B0E0F2
:10237000EFE4F0E0808180638C9333C0A5E4B0E0AB
:10238000E5E4F0E0808188648C93E981FA818281C0
:10239000813041F4A9E5B0E0E9E5F0E08081806CAE
:1023A0008C931FC0E981FA8182818823D1F4E9816D
:1023B000FA818381813049F4A5E4B0E0EFE4F0E0F4
:1023C00080818F7C80628C930CC0E981FA8183814B
:1023D000882339F4A5E4B0E0EFE4F0E08081806385
:1023E0008C930F900F900F900F90CF91DF910895E5
:1023F000DF93CF9300D000D0CDB7DEB79A83898327
:102400007C836B8389819A81009779F0E981FA81D5
:102410008081882F90E002978C30910530F4E6E4BB
:10242000F0E08B819C81918380830F900F900F90BF
:102430000F90CF91DF910895DF93CF9300D000D01C
:1024400000D0CDB7DEB79A8389837C836B83898183
:102450009A81009761F1E981FA818081282F30E02B
:102460003E832D838D819E818E30910554F42D8184
:102470003E812230310584F48D819E819923BCF008
:1024800006C02D813E81203131058CF40CC0ECE575
:10249000F0E08B8180830BC0E8E4F0E08B819C81CD
:1024A0009183808304C0E3E4F0E08B8180832696EF
:1024B0000FB6F894DEBF0FBECDBFCF91DF91089568
:1024C000DF93CF93CDB7DEB72A970FB6F894DEBF70
:1024D0000FBECDBF9A83898389819A81009709F4C1
:1024E000A7C1E981FA818081282F30E03A872987C6
:1024F00089859A858E30910564F429853A85223044
:1025000031050CF090C089859A8599230CF490C10F
:1025100007C029853A85203131050CF089C106C1F3
:1025200081E063E041E00E949E14E981FA818181AB
:10253000282F30E038872F838F819885833091054D
:1025400009F445C02F813885243031057CF48F8112
:1025500098858130910549F12F81388522303105E8
:102560006CF58F8198850097C1F062C12F81388505
:102570002530310509F43DC08F819885853091055E
:102580007CF12F81388526303105E1F18F819885E6
:102590008730910509F43FC04BC1A3E5B0E0E3E506
:1025A000F0E08081887F8C9343C1A3E5B0E0E3E550
:1025B000F0E08081887F81608C933AC1A3E5B0E030
:1025C000E3E5F0E08081887F82608C9331C1A3E5F0
:1025D000B0E0E3E5F0E08081887F83608C9328C1E0
:1025E000A3E5B0E0E3E5F0E08081887F84608C9330
:1025F0001FC1A3E5B0E0E3E5F0E08081887F85605E
:102600008C9316C1A3E5B0E0E3E5F0E08081887F1C
:1026100086608C930DC1A3E5B0E0E3E5F0E0808136
:1026200087608C9305C183E064E041E00E949E14C2
:10263000E981FA818181282F30E03E832D838D81CD
:102640009E818330910509F445C02D813E8124305F
:1026500031057CF48D819E818130910549F12D8178
:102660003E81223031056CF58D819E810097C1F04D
:10267000DFC02D813E812530310509F43DC08D81BB
:102680009E81853091057CF12D813E81263031057A
:10269000E1F18D819E818730910509F43FC0C8C06A
:1026A000AEE4B0E0EEE4F0E08081887F8C93C0C0BF
:1026B000AEE4B0E0EEE4F0E08081887F81608C934E
:1026C000B7C0AEE4B0E0EEE4F0E08081887F8260E5
:1026D0008C93AEC0AEE4B0E0EEE4F0E08081887FA1
:1026E00083608C93A5C0AEE4B0E0EEE4F0E08081BE
:1026F000887F84608C939CC0AEE4B0E0EEE4F0E0B0
:102700008081887F85608C9393C0AEE4B0E0EEE476
:10271000F0E08081887F86608C938AC0AEE4B0E070
:10272000EEE4F0E0808187608C9382C083E067E014
:1027300041E00E949E14E981FA818181282F30E0D6
:102740003C832B838B819C818330910509F44EC09F
:102750002B813C81243031057CF48B819C8181303C
:10276000910549F12B813C81223031056CF58B813B
:102770009C810097C1F05CC02B813C8125303105E4
:1027800009F44FC08B819C81853091050CF440C0C9
:102790002B813C812830310501F18B819C8189306E
:1027A000910569F145C0A5E4B0E0E5E4F0E0808181
:1027B000887F8C933DC0A5E4B0E0E5E4F0E0808143
:1027C000887F81608C9334C0A5E4B0E0E5E4F0E05C
:1027D0008081887F82608C932BC0A5E4B0E0E5E423
:1027E000F0E08081887F83608C9322C0A5E4B0E014
:1027F000E5E4F0E08081887F84608C9319C0A5E4D3
:10280000B0E0E5E4F0E08081887F85608C9310C0C3
:10281000A5E4B0E0E5E4F0E08081887F86608C93F9
:1028200007C0A5E4B0E0E5E4F0E0808187608C9328
:102830002A960FB6F894DEBF0FBECDBFCF91DF91C1
:102840000895DF93CF9300D000D0CDB7DEB79A8341
:10285000898389819A81009799F1E981FA81808140
:10286000282F30E03C832B838B819C818E30910517
:1028700054F42B813C81223031059CF48B819C8166
:102880009923F4F006C02B813C8120313105C4F43A
:1028900010C0A3E5B0E0E3E5F0E08081887F8C9391
:1028A0000FC0AEE4B0E0EEE4F0E08081887F8C936E
:1028B00007C0A5E4B0E0E5E4F0E08081887F8C9378
:1028C0000F900F900F900F90CF91DF910895DF93AD
:1028D000CF93CDB7DEB7AFE5B0E0EFE5F0E08081B4
:1028E00080688C93CF91DF910895DF93CF93CDB71C
:1028F000DEB7AFE5B0E0EFE5F0E080818F778C9355
:10290000CF91DF910895DF93CF9300D000D0CDB762
:10291000DEB789836A834B832C8389816A814B81EB
:102920000E949E1489816A814C810E949E150F909D
:102930000F900F900F90CF91DF910895DF93CF9379
:10294000CDB7DEB727970FB6F894DEBF0FBECDBF69
:1029500089836A834B838B81813009F06FC08981C1
:10296000282F30E03F832E838E819F818130910517
:1029700049F12E813F81223031052CF48E819F81D7
:10298000009761F0D2C02E813F812230310571F174
:102990008E819F8183309105E9F1C7C0AAE3B0E041
:1029A000EAE3F0E08081482F8A81282F30E081E03F
:1029B00090E0022E02C0880F991F0A94E2F7842B40
:1029C0008C93B3C0A7E3B0E0E7E3F0E08081482F49
:1029D0008A81282F30E081E090E0022E02C0880F2B
:1029E000991F0A94E2F7842B8C939FC0A4E3B0E074
:1029F000E4E3F0E08081482F8A81282F30E081E0F5
:102A000090E0022E02C0880F991F0A94E2F7842BEF
:102A10008C938BC0A1E3B0E0E1E3F0E08081482F2C
:102A20008A81282F30E081E090E0022E02C0880FDA
:102A3000991F0A94E2F7842B8C9377C08B818823AB
:102A400009F073C08981282F30E03D832C838C816D
:102A50009D818130910559F12C813D8122303105D4
:102A60002CF48C819D81009769F05FC02C813D81A1
:102A70002230310589F18C819D818330910509F4E3
:102A800040C053C0AAE3B0E0EAE3F0E08081482F01
:102A90008A81282F30E081E090E0022E02C0880F6A
:102AA000991F0A94E2F7809584238C933EC0A7E394
:102AB000B0E0E7E3F0E08081482F8A81282F30E002
:102AC00081E090E0022E02C0880F991F0A94E2F77D
:102AD000809584238C9329C0A4E3B0E0E4E3F0E084
:102AE0008081482F8A81282F30E081E090E0022EFB
:102AF00002C0880F991F0A94E2F7809584238C9373
:102B000014C0A1E3B0E0E1E3F0E08081482F8A81C6
:102B1000282F30E081E090E0022E02C0880F991F3C
:102B20000A94E2F7809584238C9327960FB6F89445
:102B3000DEBF0FBECDBFCF91DF910895DF93CF935E
:102B4000CDB7DEB727970FB6F894DEBF0FBECDBF67
:102B500089836A834B838B81813009F06FC08981BF
:102B6000282F30E03F832E838E819F818130910515
:102B700049F12E813F81223031052CF48E819F81D5
:102B8000009761F0D2C02E813F812230310571F172
:102B90008E819F8183309105E9F1C7C0ABE3B0E03E
:102BA000EBE3F0E08081482F8A81282F30E081E03C
:102BB00090E0022E02C0880F991F0A94E2F7842B3E
:102BC0008C93B3C0A8E3B0E0E8E3F0E08081482F45
:102BD0008A81282F30E081E090E0022E02C0880F29
:102BE000991F0A94E2F7842B8C939FC0A5E3B0E071
:102BF000E5E3F0E08081482F8A81282F30E081E0F2
:102C000090E0022E02C0880F991F0A94E2F7842BED
:102C10008C938BC0A2E3B0E0E2E3F0E08081482F28
:102C20008A81282F30E081E090E0022E02C0880FD8
:102C3000991F0A94E2F7842B8C9377C08B818823A9
:102C400009F073C08981282F30E03D832C838C816B
:102C50009D818130910559F12C813D8122303105D2
:102C60002CF48C819D81009769F05FC02C813D819F
:102C70002230310589F18C819D818330910509F4E1
:102C800040C053C0ABE3B0E0EBE3F0E08081482FFD
:102C90008A81282F30E081E090E0022E02C0880F68
:102CA000991F0A94E2F7809584238C933EC0A8E391
:102CB000B0E0E8E3F0E08081482F8A81282F30E0FF
:102CC00081E090E0022E02C0880F991F0A94E2F77B
:102CD000809584238C9329C0A5E3B0E0E5E3F0E080
:102CE0008081482F8A81282F30E081E090E0022EF9
:102CF00002C0880F991F0A94E2F7809584238C9371
:102D000014C0A2E3B0E0E2E3F0E08081482F8A81C2
:102D1000282F30E081E090E0022E02C0880F991F3A
:102D20000A94E2F7809584238C9327960FB6F89443
:102D3000DEBF0FBECDBFCF91DF910895DF93CF935C
:102D400000D000D00F92CDB7DEB78A836B83198293
:102D50008A81282F30E03D832C834C815D81413076
:102D6000510541F18C819D818230910534F42C8193
:102D70003D812115310561F052C04C815D814230A9
:102D8000510551F18C819D8183309105B9F147C086
:102D9000E9E3F0E08081282F30E08B81882F90E0FC
:102DA000A90102C0559547958A95E2F7CA0181703D
:102DB000898335C0E6E3F0E08081282F30E08B8105
:102DC000882F90E0A90102C0559547958A95E2F7B2
:102DD000CA018170898323C0E3E3F0E08081282F5A
:102DE00030E08B81882F90E0A90102C0559547956E
:102DF0008A95E2F7CA018170898311C0E0E3F0E0AF
:102E00008081282F30E08B81882F90E0A90102C0BB
:102E1000559547958A95E2F7CA0181708983898122
:102E20000F900F900F900F900F90CF91DF9108951A
:102E3000DF93CF9300D000D0CDB7DEB789836A830C
:102E40008981282F30E03C832B838B819C818130CA
:102E5000910549F12B813C81223031052CF48B8185
:102E60009C81009761F05AC02B813C812230310552
:102E700071F18B819C8183309105E9F14FC0ABE307
:102E8000B0E0EBE3F0E08081482F8A81282F30E02A
:102E900081E090E0022E02C0880F991F0A94E2F7A9
:102EA00084278C933BC0A8E3B0E0E8E3F0E08081A6
:102EB000482F8A81282F30E081E090E0022E02C066
:102EC000880F991F0A94E2F784278C9327C0A5E303
:102ED000B0E0E5E3F0E08081482F8A81282F30E0E0
:102EE00081E090E0022E02C0880F991F0A94E2F759
:102EF00084278C9313C0A2E3B0E0E2E3F0E080818A
:102F0000482F8A81282F30E081E090E0022E02C015
:102F1000880F991F0A94E2F784278C930F900F90E3
:102F20000F900F90CF91DF910895DF93CF9300D052
:102F300000D000D0CDB7DEB789836A838A81813023
:102F400099F58981282F30E03E832D838D819E81E4
:102F500081309105D1F02D813E81223031052CF454
:102F60008D819E81009761F050C02D813E8122307D
:102F7000310581F08D819E818330910581F045C0BE
:102F8000EAE3F0E08FEF808340C0E7E3F0E08FEF0B
:102F900080833BC0E4E3F0E08FEF808336C0E1E361
:102FA000F0E08FEF808331C08A81882371F58981B9
:102FB000282F30E03C832B838B819C8181309105CD
:102FC000C9F02B813C81223031052CF48B819C810E
:102FD000009761F01AC02B813C812230310571F0DD
:102FE0008B819C818330910569F00FC0EAE3F0E0AA
:102FF00010820BC0E7E3F0E0108207C0E4E3F0E0EA
:10300000108203C0E1E3F0E0108226960FB6F89438
:10301000DEBF0FBECDBFCF91DF910895DF93CF9379
:10302000CDB7DEB728970FB6F894DEBF0FBECDBF81
:1030300089836A838981282F30E038872F838F81A5
:10304000988581309105E9F02F813885223031054E
:103050002CF48F819885009761F02AC02F813885E4
:1030600022303105B1F08F81988583309105C9F008
:103070001FC0EBE3F0E09081EBE3F0E08A81808316
:1030800017C0E8E3F0E02081E8E3F0E08A81808384
:103090000FC0E5E3F0E03081E5E3F0E08A81808372
:1030A00007C0E2E3F0E08081E2E3F0E08A81808320
:1030B00028960FB6F894DEBF0FBECDBFCF91DF913B
:1030C0000895DF93CF9300D000D0CDB7DEB78A83C9
:1030D00019828A81282F30E03C832B838B819C814D
:1030E00081309105D1F02B813C81223031052CF4C7
:1030F0008B819C81009761F01EC02B813C81223026
:10310000310581F08B819C818330910581F013C062
:10311000E9E3F0E0808189830EC0E6E3F0E080819E
:10312000898309C0E3E3F0E08081898304C0E0E3A0
:10313000F0E08081898389810F900F900F900F902C
:10314000CF91DF910895DF93CF9300D000D000D0CE
:10315000CDB7DEB789836A838A81813009F03FC0A9
:103160008981282F30E03E832D838D819E8181309F
:103170009105E9F02D813E81223031052CF48D81BD
:103180009E81009761F06DC02D813E812230310516
:10319000B1F08D819E8183309105C9F062C0AAE3B0
:1031A000B0E0EAE3F0E080818F608C935AC0A7E33F
:1031B000B0E0E7E3F0E080818F608C9352C0A4E33D
:1031C000B0E0E4E3F0E080818F608C934AC0A1E33B
:1031D000B0E0E1E3F0E080818F608C9342C08A81AF
:1031E000882309F03EC08981282F30E03C832B835F
:1031F0008B819C8181309105E9F02B813C812230CB
:1032000031052CF48B819C81009761F02AC02B81C1
:103210003C8122303105B1F08B819C818330910556
:10322000C9F01FC0AAE3B0E0EAE3F0E08081807F4C
:103230008C9317C0A7E3B0E0E7E3F0E08081807FE4
:103240008C930FC0A4E3B0E0E4E3F0E08081807FE2
:103250008C9307C0A1E3B0E0E1E3F0E08081807FE0
:103260008C9326960FB6F894DEBF0FBECDBFCF91DC
:10327000DF910895DF93CF9300D000D000D0CDB779
:10328000DEB789836A838A81813009F03FC08981F2
:10329000282F30E03E832D838D819E8181309105E2
:1032A000E9F02D813E81223031052CF48D819E8103
:1032B000009761F06DC02D813E8122303105B1F063
:1032C0008D819E8183309105C9F062C0AAE3B0E090
:1032D000EAE3F0E08081806F8C935AC0A7E3B0E00E
:1032E000E7E3F0E08081806F8C9352C0A4E3B0E00C
:1032F000E4E3F0E08081806F8C934AC0A1E3B0E00A
:10330000E1E3F0E08081806F8C9342C08A81882362
:1033100009F03EC08981282F30E03C832B838B81CC
:103320009C8181309105E9F02B813C81223031056F
:103330002CF48B819C81009761F02AC02B813C8109
:1033400022303105B1F08B819C8183309105C9F029
:103350001FC0AAE3B0E0EAE3F0E080818F708C93B5
:1033600017C0A7E3B0E0E7E3F0E080818F708C93B3
:103370000FC0A4E3B0E0E4E3F0E080818F708C93B1
:1033800007C0A1E3B0E0E1E3F0E080818F708C93AF
:1033900026960FB6F894DEBF0FBECDBFCF91DF915A
:1033A0000895DF93CF9300D000D0CDB7DEB78983E7
:1033B0006A838981282F30E03C832B838B819C8119
:1033C0008130910509F12B813C81223031052CF4AB
:1033D0008B819C81009761F03AC02B813C81223027
:1033E0003105F1F08B819C818330910529F12FC04B
:1033F000ABE3B0E0EBE3F0E08081982F907F8A812F
:103400008F70892B8C9323C0A8E3B0E0E8E3F0E051
:103410008081982F907F8A818F70892B8C9317C021
:10342000A5E3B0E0E5E3F0E08081982F907F8A810A
:103430008F70892B8C930BC0A2E3B0E0E2E3F0E045
:103440008081982F907F8A818F70892B8C930F9029
:103450000F900F900F90CF91DF910895DF93CF934E
:1034600000D000D0CDB7DEB789836A838981282F49
:1034700030E03C832B838B819C818130910509F165
:103480002B813C81223031052CF48B819C8100976B
:1034900061F03AC02B813C8122303105F1F08B8103
:1034A0009C818330910529F12FC0ABE3B0E0EBE3C1
:1034B000F0E08081982F9F708A81807F892B8C9388
:1034C00023C0A8E3B0E0E8E3F0E08081982F9F708C
:1034D0008A81807F892B8C9317C0A5E3B0E0E5E358
:1034E000F0E08081982F9F708A81807F892B8C9358
:1034F0000BC0A2E3B0E0E2E3F0E08081982F9F7080
:103500008A81807F892B8C930F900F900F900F9062
:10351000CF91DF910895DF93CF9300D0CDB7DEB781
:103520009A83898389819A81009741F189819A815F
:103530000E94B70DE981FA818081883051F0E981DC
:10354000FA8180818A3029F0E981FA8180818C308A
:1035500049F489819A81E981FA8125813681B9010D
:103560000E94F811E981FA81248189819A81622F70
:103570000E94C31A89819A810E9460120F900F9055
:10358000CF91DF910895DF93CF9300D000D00F92B9
:10359000CDB7DEB79A8389836B838B81282F30E088
:1035A0003D832C838C819D818130910599F02C8104
:1035B0003D8122303105C1F08C819D810097E9F475
:1035C00089819A81E981FA8127813085B9010E9438
:1035D0001C1213C089819A81E981FA812185328583
:1035E000B9010E941C1209C089819A81E981FA817E
:1035F00023853485B9010E941C120F900F900F9003
:103600000F900F90CF91DF910895DF93CF9300D06B
:10361000CDB7DEB79A83898389819A810E9460122F
:103620000F900F90CF91DF910895DF93CF9300D04B
:10363000CDB7DEB79A83898389819A810E9421144C
:103640000F900F90CF91DF910895DF93CF93CDB777
:10365000DEB70E94AD07CF91DF910895DF93CF933E
:10366000CDB7DEB762970FB6F894DEBF0FBECDBF01
:103670008F87688B498B0E94CF070E944D08883046
:1036800011F01A8A8DC089898E75806A0E94EA07B6
:103690000E944D08883111F01A8A82C08F850E94DD
:1036A000EA070E944D08883211F01A8A79C0888989
:1036B0000E94EA070E94DF0780E090E0A0EAB1E400
:1036C0008B879C87AD87BE876B857C858D859E8526
:1036D00020E030E04AEF54E40E941F02DC01CB01FD
:1036E0008F839887A987BA876F81788589859A851E
:1036F00020E030E040E85FE30E94790388232CF467
:1037000081E090E09E838D833FC06F8178858985BD
:103710009A8520E03FEF4FE757E40E9419031816FF
:103720004CF56B857C858D859E8520E030E040E200
:1037300051E40E941F02DC01CB01BC01CD010E94BB
:103740004900DC01CB019E838D830FC088EC90E0A3
:103750009C838B838B819C810197F1F79C838B8366
:103760008D819E8101979E838D838D819E8100979F
:1037700069F714C06F81788589859A850E94490010
:10378000DC01CB019E838D838D819E819A83898309
:1037900089819A810197F1F79A83898381E08A8BE5
:1037A0008A8962960FB6F894DEBF0FBECDBFCF9167
:1037B000DF910895DF93CF93CDB7DEB762970FB651
:1037C000F894DEBF0FBECDBF8F87798B688B4A8B95
:1037D0000E94CF070E944D088A898E75806A0E94D8
:1037E000EA070E944D088F850E94EA070E944D0853
:1037F0000E94CF070E944D088A89816A0E94EA07C9
:103800000E944D080E942708E889F98980830E9458
:103810004D080E94DF0780E090E0A0EAB1E48B87CA
:103820009C87AD87BE876B857C858D859E8520E0D6
:1038300030E04AEF54E40E941F02DC01CB018F8389
:103840009887A987BA876F81788589859A8520E0CE
:1038500030E040E85FE30E94790388232CF481E0A4
:1038600090E09E838D833FC06F81788589859A859E
:1038700020E03FEF4FE757E40E94190318164CF57C
:103880006B857C858D859E8520E030E040E251E4AB
:103890000E941F02DC01CB01BC01CD010E94490046
:1038A000DC01CB019E838D830FC088EC90E09C836C
:1038B0008B838B819C810197F1F79C838B838D8116
:1038C0009E8101979E838D838D819E81009769F7EC
:1038D00014C06F81788589859A850E944900DC0132
:1038E000CB019E838D838D819E819A83898389817B
:1038F0009A810197F1F79A83898381E062960FB6E6
:10390000F894DEBF0FBECDBFCF91DF910895DF9356
:10391000CF9300D000D000D0CDB7DEB78B837D83AE
:103920006C834E831A828B81898314C08A81282FED
:1039300030E08C819D81FC01E20FF31F9081898131
:10394000692F4E810E942E1B89818F5F89838A8116
:103950008F5F8A838A81282F30E08C819D81FC01D2
:10396000E20FF31F8081882309F7898160E04E818F
:103970000E942E1B26960FB6F894DEBF0FBECDBF59
:10398000CF91DF910895DF93CF93CDB7DEB727971F
:103990000FB6F894DEBF0FBECDBF8C837E836D83E0
:1039A0004F831A828C8189839E012D5F3F4F8981CD
:1039B000B9014F810E94DA1B8B818F3F99F08A8178
:1039C000282F30E08D819E81FC01E20FF31F8B8157
:1039D00080838A818F5F8A8389818F5F89838B81CE
:1039E000882311F727960FB6F894DEBF0FBECDBF20
:1039F000CF91DF910895DF93CF93CDB7DEB78CE2FF
:103A000096E00E94A305CF91DF910895DF93CF93B5
:103A1000CDB7DEB78CE296E00E941107CF91DF911F
:103A20000895DF93CF93CDB7DEB78CE296E00E9486
:103A30002B07CF91DF910895DF93CF930F92CDB7EE
:103A4000DEB7898389810E9445070F90CF91DF916E
:103A50000895DF93CF93CDB7DEB70E945F078093C1
:103A6000FC068091FC06CF91DF910895DF93CF9300
:103A700000D0CDB7DEB79A83898389819A810E946D
:103A80007C070F900F90CF91DF910895DF93CF9334
:103A9000CDB7DEB70E949907CF91DF9108950F93BC
:103AA0001F93DF93CF93CDB7DEB769970FB6F89426
:103AB000DEBF0FBECDBF998F888F0E94461D1B822F
:103AC0002DEF36E088EFB90142E00E94DA1B8BE768
:103AD00090E00E94361D8091FD06853029F489E929
:103AE00090E00E94361DB5C08EEB90E00E94361D1E
:103AF0000E94461D1A821DC08A81082F10E00E9474
:103B0000291D282FCE010496FC01E00FF11F208310
:103B10008A81282F30E0CE010496FC01E20FF31FCA
:103B200080810E941C1D8A818F5F8A838A818930EF
:103B300071F08A81882F90E09C0121503040CE01A5
:103B40000496FC01E20FF31F80818D30A9F68A8173
:103B5000882F90E09C0121503040CE010496FC015A
:103B6000E20FF31F1082CE0104960E94031F8823E8
:103B700089F0888D998D0E941421882359F0888DB1
:103B8000998D05969E012C5F3F4FB9010E949629A1
:103B900081E08B838B81813009F057C083ED90E009
:103BA0000E94361D19821DC08981082F10E00E94D5
:103BB000291D282FCE010E96FC01E00FF11F208356
:103BC0008981282F30E0CE010E96FC01E20FF31F11
:103BD00080810E941C1D89818F5F89838981893042
:103BE00071F08981882F90E09C0121503040CE01F6
:103BF0000E96FC01E20FF31F80818D30A9F68981BA
:103C0000882F90E09C0121503040CE010E96FC019F
:103C1000E20FF31F1082888D998D0F969E01225F0F
:103C20003F4FB9010E9496298CEE90E00E94361D0C
:103C30008091FD068F5F8093FD069091FD0688EFD1
:103C4000692F42E00E942E1B04C087E091E00E9491
:103C5000361D8B8169960FB6F894DEBF0FBECDBFBF
:103C6000CF91DF911F910F9108950F931F93DF93D1
:103C7000CF93CDB7DEB76A970FB6F894DEBF0FBE0D
:103C8000CDBF9A8F898F0E94461D1C828FE191E0E3
:103C90000E94361D8EEB90E00E94361D1B821DC0D7
:103CA0008B81082F10E00E94291D282FCE01059638
:103CB000FC01E00FF11F20838B81282F30E0CE0123
:103CC0000596FC01E20FF31F80810E941C1D8B8171
:103CD0008F5F8B838B81893071F08B81882F90E08F
:103CE0009C0121503040CE010596FC01E20FF31FEC
:103CF00080818D30A9F68B81882F90E09C01215026
:103D00003040CE010596FC01E20FF31F1082CE0178
:103D100005960E94031F8823B9F0898D9A8D0E9411
:103D200014218A838A81882379F4898D9A8D0E944F
:103D30009420898D9A8D05969E012B5F3F4FB90186
:103D40000E94962981E08C838C81813009F04BC0E0
:103D500083ED90E00E94361D19821DC08981082FD5
:103D600010E00E94291D282FCE010F96FC01E00FC4
:103D7000F11F20838981282F30E0CE010F96FC01AE
:103D8000E20FF31F80810E941C1D89818F5F898350
:103D90008981893071F08981882F90E09C012150C0
:103DA0003040CE010F96FC01E20FF31F80818D3071
:103DB000A9F68981882F90E09C0121503040CE01E6
:103DC0000F96FC01E20FF31F1082898D9A8D0F96DA
:103DD0009E01215F3F4FB9010E9496298AE391E03D
:103DE0000E94361D04C086E591E00E94361D8C813C
:103DF0006A960FB6F894DEBF0FBECDBFCF91DF91AC
:103E00001F910F910895DF93CF9300D000D0CDB7CD
:103E1000DEB79C838B8381E08A83198218C08981F5
:103E2000882F90E0880F991FFC01ED54F94F808195
:103E300091819C012B5F3F4F8B819C81B9010E9436
:103E40008D29009709F41A8289818F5F8983909167
:103E500035068981891718F38A810F900F900F908A
:103E60000F90CF91DF910895DF93CF930F92CDB74D
:103E7000DEB719825BC08981882F90E0880F991F77
:103E8000FC01ED54F94F0190F081E02D8181928188
:103E9000482F8981882F90E0880F991FFC01ED54ED
:103EA000F94F808191819C012B5F3F4F8981882F41
:103EB00090E0880F991FFC01ED54F94F0190F081BB
:103EC000E02D9081842FB901492F0E94C31C898164
:103ED000882F90E0880F991FFC01ED54F94F019055
:103EE000F081E02D83819481482F8981882F90E093
:103EF000880F991FFC01ED54F94F808191819C013D
:103F0000215F3F4F8981882F90E0880F991FFC0126
:103F1000ED54F94F0190F081E02D9081842FB9018B
:103F2000492F0E94C31C89818F5F89839091350638
:103F30008981891708F49FCF0F90CF91DF91089561
:103F4000DF93CF930F92CDB7DEB719825BC0898123
:103F5000882F90E0880F991FFC01ED54F94F0190D4
:103F6000F081E02D81819281482F8981882F90E016
:103F7000880F991FFC01ED54F94F808191819C01BC
:103F80002B5F3F4F8981882F90E0880F991FFC019C
:103F9000ED54F94F0190F081E02D9081842FB9010B
:103FA000492F0E94871C8981882F90E0880F991FD4
:103FB000FC01ED54F94F0190F081E02D8381948153
:103FC000482F8981882F90E0880F991FFC01ED54BC
:103FD000F94F808191819C01215F3F4F8981882F1A
:103FE00090E0880F991FFC01ED54F94F0190F0818A
:103FF000E02D9081842FB901492F0E94871C89816F
:104000008F5F8983909135068981891708F49FCF46
:104010000F90CF91DF910895DF93CF930F92CDB79B
:10402000DEB719824BC08AE691E00E94361D898175
:10403000882F90E0880F991FFC01ED54F94F0190F3
:10404000F081E02D818192810E941C1D81E891E028
:104050000E94361D8981882F90E0880F991FFC01EE
:10406000ED54F94F0190F081E02D838194810E94FD
:104070001C1D8CE991E00E94361D8981882F90E0FB
:10408000880F991FFC01ED54F94F808191810596AD
:104090000E94361D8BEA91E00E94361D8981882F8F
:1040A00090E0880F991FFC01ED54F94F80819181B8
:1040B0000F960E94361D89818F5F89839091350606
:1040C0008981891708F4AFCF0F90CF91DF910895C0
:1040D000DF93CF930F92CDB7DEB719821CC08EEB62
:1040E00091E00E94361D8981805D0E941C1D81EC3B
:1040F00091E00E94361D8981882F90E0880F991FDA
:10410000FC01ED54F94F8081918105960E94361D86
:1041100089818F5F89839091350689818917F8F2AB
:104120000F90CF91DF910895DF93CF9300D000D00F
:10413000CDB7DEB79C838B831A82198216C08A8121
:10414000282F30E08B819C81820F931FFC013596D4
:104150008081882F90E021ED31E0B90141E050E00D
:104160000E9484298A818F5F8A838A818B3038F309
:1041700016C08981282F30E08B819C81820F931F8C
:10418000FC013F968081882F90E021ED31E0B9015C
:1041900041E050E00E94842989818F5F8983898171
:1041A0008B3038F38B819C81059623ED31E0B9018A
:1041B00045E050E00E9484298B819C810F9621ED7F
:1041C00031E0B90141E050E00E9484290F900F9046
:1041D0000F900F90CF91DF910895DF93CF9300D090
:1041E000CDB7DEB79A83898389819A810E94942012
:1041F0002DEF36E088EFB90142E00E94DA1B809192
:10420000FD0681508093FD069091FD0688EF692F91
:1042100042E00E942E1B88ED91E00E94361D0F9017
:104220000F90CF91DF910895DF93CF9300D00F923D
:10423000CDB7DEB79B838A8319828A819B819C01DB
:104240002B5F3F4F83ED91E0B9010E948D290097CC
:1042500011F481E0898389810F900F900F90CF91A5
:10426000DF910895DF93CF93CDB7DEB727970FB6D1
:10427000F894DEBF0FBECDBF9C838B837E836D839E
:104280004F838D819E8164E10E946F211A82198281
:1042900015C029813A818D819E81DC01A20FB31F57
:1042A00029813A818B819C81FC01E20FF31F80817F
:1042B0008C9389819A8101969A8389838F81282F93
:1042C00030E089819A81821793071CF327960FB6F5
:1042D000F894DEBF0FBECDBFCF91DF910895DF937D
:1042E000CF9300D000D00F92CDB7DEB79C838B83E5
:1042F0006D831A8219820DC029813A818B819C813C
:10430000FC01E20FF31F108289819A8101969A8342
:1043100089838D81282F30E089819A8182179307C4
:104320005CF30F900F900F900F900F90CF91DF9153
:104330000895DF93CF9300D0CDB7DEB7198289E21D
:1043400097E025EF31E0B9010E948D29009759F4DB
:104350008EE397E025EF31E0B9010E948D290097A7
:1043600011F41A8213C00E94CC2189838981823082
:1043700019F482E08A830AC00E94D5238983898147
:10438000813019F481E08A8301C01A828A810F90FA
:104390000F90CF91DF910895DF93CF93CDB7DEB724
:1043A000E3970FB6F894DEBF0FBECDBFCE010196E6
:1043B0009BA78AA7AAEFB1E0BDA7ACA7B7E0BEA7AD
:1043C000ECA5FDA500808CA59DA501969DA78CA7B9
:1043D000AAA5BBA50C92EAA5FBA53196FBA7EAA767
:1043E000FEA5F150FEA78EA5882351F78DE0FE01B2
:1043F0003896DF01982F1D929A95E9F7DE015596C0
:10440000B8ABAFA7EAEFF1E0FAABE9ABF7E0FBAB93
:10441000A9A9BAA90C90E9A9FAA93196FAABE9AB16
:10442000AFA5B8A90C92EFA5F8A93196F8ABEFA704
:10443000FBA9F150FBAB8BA9882351F78DE0FE015E
:104440007C96DF01982F1D929A95E9F789E297E013
:104450009E012F5F3F4FB9010E948D29009769F49B
:104460008EE397E09E012B5E3F4FB9010E948D299C
:10447000009719F4A2E0A9A701C019A689A5E3969F
:104480000FB6F894DEBF0FBECDBFCF91DF91089578
:10449000DF93CF93CDB7DEB7AA970FB6F894DEBF00
:1044A0000FBECDBF85EF96E00E94F80A1092FA0683
:1044B0006AC181E063E041E00E949E1481E063E014
:1044C00041E00E949E1580E090E0AAE7B3E48FA34C
:1044D00098A7A9A7BAA76FA178A589A59AA520E052
:1044E00030E04AEF54E40E941F02DC01CB018BA3B1
:1044F0009CA3ADA3BEA36BA17CA18DA19EA120E036
:1045000030E040E85FE30E94790388232CF481E0E7
:1045100090E09AA389A33FC06BA17CA18DA19EA12D
:1045200020E03FEF4FE757E40E94190318164CF5BF
:104530006FA178A589A59AA520E030E040E251E47A
:104540000E941F02DC01CB01BC01CD010E94490089
:10455000DC01CB019AA389A30FC088EC90E098A35B
:104560008F8F8F8D98A10197F1F798A38F8F89A1D5
:104570009AA101979AA389A389A19AA1009769F7A3
:1045800014C06BA17CA18DA19EA10E944900DC01F9
:10459000CB019AA389A389A19AA19E8F8D8F8D8D1E
:1045A0009E8D0197F1F79E8F8D8F81E063E040E053
:1045B0000E949E1580E090E0AAE7B3E4898F9A8F6D
:1045C000AB8FBC8F698D7A8D8B8D9C8D20E030E018
:1045D0004AEF54E40E941F02DC01CB018D8B9E8BBD
:1045E000AF8BB88F6D897E898F89988D20E030E000
:1045F00040E85FE30E94790388232CF481E090E097
:104600009C8B8B8B3FC06D897E898F89988D20E034
:104610003FEF4FE757E40E94190318164CF5698DD8
:104620007A8D8B8D9C8D20E030E040E251E40E9439
:104630001F02DC01CB01BC01CD010E944900DC015D
:10464000CB019C8B8B8B0FC088EC90E09A8B898B75
:1046500089899A890197F1F79A8B898B8B899C8933
:1046600001979C8B8B8B8B899C89009769F714C071
:104670006D897E898F89988D0E944900DC01CB016C
:104680009C8B8B8B8B899C89988B8F878F85988946
:104690000197F1F7988B8F8781E063E041E00E94FA
:1046A0009E1580E090E0AAE7B4E48B879C87AD87F5
:1046B000BE876B857C858D859E8520E030E04AEF46
:1046C00054E40E941F02DC01CB018F839887A987E5
:1046D000BA876F81788589859A8520E030E040E847
:1046E0005FE30E94790388232CF481E090E09E83AD
:1046F0008D833FC06F81788589859A8520E03FEF63
:104700004FE757E40E94190318164CF56B857C851A
:104710008D859E8520E030E040E251E40E941F023A
:10472000DC01CB01BC01CD010E944900DC01CB01C1
:104730009E838D830FC088EC90E09C838B838B815C
:104740009C810197F1F79C838B838D819E810197DA
:104750009E838D838D819E81009769F714C06F8140
:10476000788589859A850E944900DC01CB019E836A
:104770008D838D819E819A83898389819A81019716
:10478000F1F79A8389838091FA06882309F491CE00
:1047900085EF96E00E94AA0CAA960FB6F894DEBFA9
:1047A0000FBECDBFCF91DF910895DF93CF930F92CE
:1047B000CDB7DEB78BE396E029E237E0B9010E947E
:1047C0008D29009769F485E496E02EE337E0B9017E
:1047D0000E948D29009709F058C081E0898356C056
:1047E00084E596E029E237E0B9010E948D2900971F
:1047F00069F48EE596E02EE337E0B9010E948D2939
:10480000009709F042C081E0898340C08DE696E0C0
:1048100029E237E0B9010E948D29009761F487E70A
:1048200096E02EE337E0B9010E948D29009769F5E3
:1048300081E089832BC086E896E029E237E0B90160
:104840000E948D29009761F480E996E02EE337E01D
:10485000B9010E948D290097C1F481E0898316C0B7
:104860008FE996E029E237E0B9010E948D2900978F
:1048700061F489EA96E02EE337E0B9010E948D29C0
:10488000009719F481E0898301C0198289810F9012
:10489000CF91DF910895DF93CF93CDB7DEB72B97FC
:1048A0000FB6F894DEBF0FBECDBF86E08B878B8539
:1048B000863029F51A86198619C089859A85FC01E2
:1048C000EC5EF84F208189859A85FC01E354F94F0D
:1048D0008081281741F481E08B8789859A8501962C
:1048E0009A87898703C086E08B8709C089859A8566
:1048F0000196FC01EC5EF84F80818823F1F68B85F0
:10490000863029F518861F8219C08F819885FC0191
:10491000EC5EF84F20818F819885FC01EC53F94FB4
:104920008081281741F482E08B878F8198850196DA
:1049300098878F8303C086E08B8709C08F81988515
:104940000196FC01EC5EF84F80818823F1F68B859F
:10495000863029F51E821D8219C08D819E81FC0141
:10496000EC5EF84F20818D819E81FC01E453F94F6C
:104970008081281741F483E08B878D819E81019689
:104980009E838D8303C086E08B8709C08D819E81C5
:104990000196FC01EC5EF84F80818823F1F68B854F
:1049A000863029F51C821B8219C08B819C81FC01F9
:1049B000EC5EF84F20818B819C81FC01EA52F94F1B
:1049C0008081281741F484E08B878B819C8101963C
:1049D0009C838B8303C086E08B8709C08B819C817D
:1049E0000196FC01EC5EF84F80818823F1F68B85FF
:1049F000863029F51A82198219C089819A81FC01B1
:104A0000EC5EF84F208189819A81FC01EF51F94FCA
:104A10008081281741F485E08B8789819A810196EE
:104A20009A83898303C086E08B8709C089819A8134
:104A30000196FC01EC5EF84F80818823F1F68B85AE
:104A40002B960FB6F894DEBF0FBECDBFCF91DF918E
:104A50000895DF93CF9300D0CDB7DEB719821BC086
:104A60000E94291D8A838A810E941C1D89818331AD
:104A700059F08981882F90E0FC01E050F94F8A813C
:104A8000808389818F5F89838981882F90E0FC01F1
:104A9000E050F94F10828A818D3011F784E197E060
:104AA00020E037E0B9010E94962919821A828EE02F
:104AB00092E00E94361D0E944B248093FE060F90C8
:104AC0000F90CF91DF910895DF93CF9300D0CDB7B2
:104AD000DEB781E192E00E94361D8AE292E00E94F8
:104AE000361D88E392E00E94361D87E492E00E9422
:104AF000361D88E592E00E94361D8AE692E00E940B
:104B0000361D0E9429258091FE06282F30E03A8329
:104B1000298389819A818330910509F473C02981A1
:104B20003A81243031055CF489819A818130910584
:104B3000C9F029813A8122303105E4F5CECF89814F
:104B40009A818530910509F47DC029813A8125300B
:104B500031050CF467C089819A818630910509F48A
:104B60007DC0BBCF88E792E00E94361D80E061E007
:104B70000E94951780E060E041E00E949E1580E071
:104B800061E041E00E949E1580E062E041E00E9409
:104B90009E1580E063E041E00E949E1580E064E0A5
:104BA00041E00E949E158DE892E00E94361D109211
:104BB000FE0693CF8EEA92E00E94361D80E061E00F
:104BC0000E94951780E060E040E00E949E1580E022
:104BD00061E040E00E949E1580E062E040E00E94BB
:104BE0009E1580E063E040E00E949E1580E064E056
:104BF00040E00E949E1584EC92E00E94361D1092C7
:104C0000FE066BCF86EE92E00E94361D88EE96E09F
:104C100062E00E94C31A8EEF92E00E94361D10924D
:104C2000FE065BCF82E293E00E94361D88EE96E09E
:104C300060E00E94C31A88E393E00E94361D109240
:104C4000FE064BCF8CE593E00E94361D1092FE06C7
:104C500080E00F900F90CF91DF9108958DE693E063
:104C60000E94361D1092FE0638CFDF93CF93CDB74A
:104C7000DEB72D970FB6F894DEBF0FBECDBF8BE920
:104C800093E00E94361D0E94341F9E012B5F3F4F10
:104C900088EFB90142E00E94DA1B8D818F3F29F431
:104CA00088EF60E042E00E942E1B80E38C8380ED61
:104CB00093E00E94361D85EF93E00E94361D84E14B
:104CC00094E00E94361D84E294E00E94361D85E344
:104CD00094E00E94361D88E494E00E94361D84E52D
:104CE00094E00E94361D0E94291D8C830E94461D5F
:104CF0008C810E941C1D8C81282F30E03D872C87E1
:104D00008C859D858233910509F481C02C853D8574
:104D10002333310534F48C859D858133910571F001
:104D20005BC12C853D852333310509F4DBC08C85BF
:104D30009D858433910509F440C14EC10E946820CD
:104D400086E694E00E94361D0E94291D8B838B818C
:104D50000E941C1D0E94461D8B81282F30E03B873E
:104D60002A878A859B858233910529F12A853B858F
:104D7000233331055CF48A859B858033910589F066
:104D80002A853B852133310589F024C08A859B859E
:104D900083339105A9F02A853B8524333105A9F099
:104DA00019C086E396E00E944F1D18C08FE496E07C
:104DB0000E944F1D13C088E696E00E944F1D0EC052
:104DC00081E896E00E944F1D09C08AE996E00E94A2
:104DD0004F1D04C081E894E00E94361D85EF93E0EA
:104DE0000E94361D84E194E00E94361D84E294E026
:104DF0000E94361D85E394E00E94361D88E494E00D
:104E00000E94361D84E594E00E94361D6CCF0E94FE
:104E1000682083E994E00E94361D0E94291D8A8340
:104E20008A810E941C1D0E94461D8A81282F30E025
:104E300039872887888599858233910529F12885C6
:104E40003985233331055CF4888599858033910554
:104E500089F0288539852133310589F024C088857A
:104E6000998583339105A9F0288539852433310547
:104E7000A9F019C086E396E00E94351E18C08FE4A1
:104E800096E00E94351E13C088E696E00E94351E0B
:104E90000EC081E896E00E94351E09C08AE996E0BE
:104EA0000E94351E04C081E894E00E94361D85EF03
:104EB00093E00E94361D84E194E00E94361D84E256
:104EC00094E00E94361D85E394E00E94361D88E43C
:104ED00094E00E94361D84E594E00E94361D0E94F5
:104EE000461D01CF0E9468208CEA94E00E94361D86
:104EF0000E94291D89830E94461D89810E941C1DD4
:104F00008981282F30E03F832E838E819F818233D9
:104F1000910529F12E813F81233331055CF48E8187
:104F20009F818033910589F02E813F8121333105A6
:104F300089F024C08E819F8183339105A9F02E8151
:104F40003F8124333105A9F019C086E396E00E9421
:104F5000ED2018C08FE496E00E94ED2013C088E693
:104F600096E00E94ED200EC081E896E00E94ED20C0
:104F700009C08AE996E00E94ED2004C081E894E02F
:104F80000E94361D85EF93E00E94361D84E194E077
:104F90000E94361D84E294E00E94361D85E394E071
:104FA0000E94361D88E494E00E94361D84E594E05A
:104FB0000E94361D0E94461D96CE87EC94E00E940A
:104FC000361D0E94A01F2D960FB6F894DEBF0FBEAF
:104FD000CDBFCF91DF9108958CEF94E00E94361DF4
:104FE00085EF93E00E94361D84E194E00E94361D17
:104FF00084E294E00E94361D85E394E00E94361D11
:1050000088E494E00E94361D84E594E00E94361DF9
:105010000E94461D68CEDF93CF93CDB7DEB788EEF2
:1050200096E00E948B1A88EE96E00E94051B0E9473
:10503000FB1C0E94251B0E94341F85EF96E00E94F6
:105040005C080E94061D81E080933D07CF91DF91AF
:105050000895DF93CF9300D0CDB7DEB71FC00E9475
:10506000291D80932807809128070E941C1D80918C
:1050700028078D3099F08091FF06843178F4809173
:10508000FF06882F90E020912807FC01EE5AF84F88
:1050900020838091FF068F5F8093FF068091280711
:1050A0008D30E9F61092280788E195E00E94361DC0
:1050B00080913D07282F30E03A83298389819A81A6
:1050C0008130910531F029813A8122303105A1F0FA
:1050D00025C04091FF0682E597E029E237E0B9015B
:1050E0000E9432212091FF0682E597E0622F0E9404
:1050F0006F211092FF0612C04091FF0682E597E0F3
:105100002EE337E0B9010E9432212091FF0682E5AB
:1051100097E0622F0E946F211092FF060F900F9070
:10512000CF91DF910895DF93CF9300D000D000D0CE
:10513000CDB7DEB719820E940B2880913D07282F3A
:1051400030E03E832D838D819E818230910599F1DF
:105150002D813E812330310554F48D819E8100974D
:10516000C1F02D813E8121303105D9F0E6CF8D810E
:105170009E818430910509F482C02D813E812430C6
:1051800031051CF18D819E818530910509F47EC029
:10519000D4CF8BE195E00E947C0781E080933D07AE
:1051A000CCCF81E495E00E947C070E94292882E010
:1051B00080933D07C2CF82E595E00E947C070E9464
:1051C000292883E080933D07B8CF89E297E02EE35A
:1051D00037E0B9010E9499218A838A81282F30E023
:1051E0003C832B838B819C8181309105B1F12B8194
:1051F0003C8122303105D1F18B819C81009709F0EF
:105200009CCF83E695E00E947C078981882341F446
:1052100083E795E00E947C0789818F5F898319C0AD
:105220008981813041F48FE895E00E947C07898173
:105230008F5F89830EC08981823059F489EA95E0B5
:105240000E947C078EEC95E00E947C070E94482219
:10525000198281E080933D0770CF198281EF95E03C
:105260000E947C0785E080933D0767CF19828AE022
:1052700096E00E947C0784E080933D075ECF0E9409
:10528000352610923D070E94461D57CF0E94642587
:1052900010923D070E94461D50CF2F923F924F9291
:1052A0005F926F927F928F929F92AF92BF92CF92B6
:1052B000DF92EF92FF920F931F93CF93DF93CDB7BF
:1052C000DEB7CA1BDB0B0FB6F894DEBF0FBECDBF37
:1052D00009942A88398848885F846E847D848C8408
:1052E0009B84AA84B984C884DF80EE80FD800C8111
:1052F0001B81AA81B981CE0FD11D0FB6F894DEBFF4
:105300000FBECDBFED010895FB01DC0102C001908D
:105310000D9241505040D8F70895FB01DC018D916A
:10532000019080190110D9F3990B0895FB01DC015C
:0E53300001900D920020E1F70895F894FFCF50
:10533E00207365636F6E64732072656D61696E694B
:10534E006E67210A0D000A0D0A0D000A0D3D3D3D46
:10535E003D3D20416464696E67204E65772055732C
:10536E006572203D3D3D3D3D000A0D20596F752073
:10537E00526561636820546865204D6178204E75D2
:10538E006D626572204F66205573657273000A0D4B
:10539E00456E7465722055736572204E616D652081
:1053AE003A20000A0D456E746572205573657220A1
:1053BE0050617373776F7264203A20000A0D557333
:1053CE00657220416464656420537563636573730D
:1053DE0066756C6C7920000A0D55736572204973E1
:1053EE0020416C7265616479204578697374000A96
:1053FE000D3D3D3D3D3D2045646974696E67205508
:10540E00736572203D3D3D3D3D000A0D557365723D
:10541E0020456469746564205375636365737366B0
:10542E00756C6C7920000A0D5573657220497320D6
:10543E004E6F74204578697374000A0D557365724A
:10544E00204E616D652041646472657373203A204D
:10545E00000A0D557365722050617373776F726415
:10546E002041646472657373203A20000A0D5573EF
:10547E006572204E616D65203A20000A0D557365E8
:10548E00722050617373776F7264203A20000A0D98
:10549E0000202D2055736572204E616D65203A20D7
:1054AE0000000046524545000A0D557365722052A4
:1054BE00656D6F766564205375636365737366758A
:1054CE006C6C79200046524545004D41535445526F
:1054DE0000000000000000000000000000000D0AA7
:1054EE000057656C436F6D6520496E20557365726C
:1054FE00204D6F6465200D0A0A0031202D206C6549
:10550E0064206F6E200D0A0032202D206C65642001
:10551E006F6666200D0A0033202D20646F6F722097
:10552E006F70656E200D0A0034202D20646F6F722F
:10553E0020636C6F7365200D0A0035202D206C6F73
:10554E00676F7574200D0A005475726E696E672050
:10555E004C6564204F6E2E2E2E200D0A00416C6C71
:10556E00204C6564205475726E6564204F6E205316
:10557E0075636365737366756C6C790D0A0054758B
:10558E00726E696E67204C6564204F66662E2E2EF5
:10559E00200D0A00416C6C204C6564205475726EAF
:1055AE006564204F66662053756363657373667515
:1055BE006C6C790D0A004F70656E696E6720446FD2
:1055CE006F72204C6F636B2E2E2E200D0A00446FCF
:1055DE006F72204C6F636B204F70656E6564205345
:1055EE0075636365737366756C6C792E2E2E200D44
:1055FE000A00436C6F736520446F6F72204C6F63AB
:10560E006B2E2E2E200D0A00446F6F72204C6F638E
:10561E006B20436C6F73656420537563636573739E
:10562E0066756C6C792E2E2E200D0A004C6F6767F6
:10563E00696E67204F75742E2E2E0D0A00596F75E8
:10564E0020456E74657220496E76616C69642043E4
:10565E006F6D6D616E6420506C6561736520547260
:10566E007920416761696E200D0A000A0D3D3D3DAE
:10567E003D3D20506C6561736520576169742057FC
:10568E0068696C652050726F63657373696E67200D
:10569E00596F75722044617461203D3D3D3D3D0062
:1056AE000A0D3D3D3D3D3D2055736572204D616EA9
:1056BE006167656D656E742053797374656D203DF9
:1056CE003D3D3D3D000A0D3D3D3D3D3D2043686F56
:1056DE006F7365204F7065726174696F6E203D3D0A
:1056EE003D3D3D000A0D31202D204164642055734F
:1056FE00657220000A0D32202D20456469742055F4
:10570E0073657220000A0D33202D2052656D6F7661
:10571E0065205573657220000A0D34202D204578C2
:10572E00697420000A0D456E7465722043686F69B6
:10573E006365203A20000A0D43686F6F736520463B
:10574E00726565205573657220536C6F74203A2014
:10575E00000A0D57726F6E6720456E747279210ABA
:10576E000D20000A0D43686F6F73652055736572C7
:10577E0020546F2045646974203A20000A0D436856
:10578E006F6F7365205573657220546F2052656D6F
:10579E006F7665203A20000A0D3D3D3D3D3D20507F
:1057AE006C656173652057616974205768696C6513
:1057BE0020536176696E6720596F7572204461744B
:1057CE0061203D3D3D3D3D0D0A0D0A000A0D57720B
:1057DE006F6E672043686F6963652054727920414C
:1057EE006761696E203A20000D0A0057656C636F81
:1057FE006D6520746F204D6F62696C6520436F6E0E
:10580E0074726F6C6C65642053797374656D0A0DD8
:10581E0000456E74657220757365726E616D653AC2
:10582E002000456E7465722070617373776F7264B9
:10583E003A200057726F6E672064617461210A0D01
:10584E000A0D0032206D6F726520747269657320C7
:10585E0072656D61696E696E67210A0D0A0D003100
:10586E00206D6F7265207472792072656D61696E3C
:10587E00696E67210A0D0A0D00596F7520656E74E9
:10588E00657265642077726F6E67207061737377CF
:10589E006F726420332074696D65730A0D0053793D
:1058AE007374656D206973206C6F636B656420661D
:1058BE006F72203130207365636F6E6473210A0D31
:1058CE00004E6F726D616C2075736572206163742A
:1058DE00697661746564210A0D004D617374657299
:1058EE0020757365722061637469766174656421D5
:1058FE000A0D0000000000000000000A0300000076
:10590E000000330100050000001800465245450016
:10591E000000000000465245450000000000000057
:10592E003000480046524545000000000000465237
:10593E00454500000000000000600078004652451A
:10594E0045000000000000465245450000000000E2
:10595E0000009000A80046524545000000000000DF
:10596E004652454500000000000000C000D8004629
:10597E00524545000000000000465245450000001B
:10598E0000000036064F06680681069A066C6564AE
:10599E00206F6E006C6564206F666600646F6F72B8
:1059AE00206F70656E00646F6F7220636C6F73652D
:1059BE00006C6F676F7574000C03000100C40964FE
:0A59CE0000BC00FA0005050100000E
:00000001FF
